{
  "_format": "hh-sol-artifact-1",
  "contractName": "DegenToken",
  "sourceName": "contracts/DegenToken.sol",
  "abi": [
    {
      "inputs": [
        {
          "internalType": "string",
          "name": "name",
          "type": "string"
        },
        {
          "internalType": "string",
          "name": "symbol",
          "type": "string"
        },
        {
          "internalType": "uint256",
          "name": "initialSupply",
          "type": "uint256"
        }
      ],
      "stateMutability": "nonpayable",
      "type": "constructor"
    },
    {
      "anonymous": false,
      "inputs": [
        {
          "indexed": true,
          "internalType": "address",
          "name": "owner",
          "type": "address"
        },
        {
          "indexed": true,
          "internalType": "address",
          "name": "spender",
          "type": "address"
        },
        {
          "indexed": false,
          "internalType": "uint256",
          "name": "value",
          "type": "uint256"
        }
      ],
      "name": "Approval",
      "type": "event"
    },
    {
      "anonymous": false,
      "inputs": [
        {
          "indexed": true,
          "internalType": "address",
          "name": "previousOwner",
          "type": "address"
        },
        {
          "indexed": true,
          "internalType": "address",
          "name": "newOwner",
          "type": "address"
        }
      ],
      "name": "OwnershipTransferred",
      "type": "event"
    },
    {
      "anonymous": false,
      "inputs": [
        {
          "indexed": true,
          "internalType": "address",
          "name": "user",
          "type": "address"
        },
        {
          "indexed": false,
          "internalType": "uint256",
          "name": "amount",
          "type": "uint256"
        }
      ],
      "name": "TokensRedeemed",
      "type": "event"
    },
    {
      "anonymous": false,
      "inputs": [
        {
          "indexed": true,
          "internalType": "address",
          "name": "from",
          "type": "address"
        },
        {
          "indexed": true,
          "internalType": "address",
          "name": "to",
          "type": "address"
        },
        {
          "indexed": false,
          "internalType": "uint256",
          "name": "value",
          "type": "uint256"
        }
      ],
      "name": "Transfer",
      "type": "event"
    },
    {
      "inputs": [
        {
          "internalType": "address",
          "name": "owner",
          "type": "address"
        },
        {
          "internalType": "address",
          "name": "spender",
          "type": "address"
        }
      ],
      "name": "allowance",
      "outputs": [
        {
          "internalType": "uint256",
          "name": "",
          "type": "uint256"
        }
      ],
      "stateMutability": "view",
      "type": "function"
    },
    {
      "inputs": [
        {
          "internalType": "address",
          "name": "spender",
          "type": "address"
        },
        {
          "internalType": "uint256",
          "name": "amount",
          "type": "uint256"
        }
      ],
      "name": "approve",
      "outputs": [
        {
          "internalType": "bool",
          "name": "",
          "type": "bool"
        }
      ],
      "stateMutability": "nonpayable",
      "type": "function"
    },
    {
      "inputs": [
        {
          "internalType": "address",
          "name": "account",
          "type": "address"
        }
      ],
      "name": "balanceOf",
      "outputs": [
        {
          "internalType": "uint256",
          "name": "",
          "type": "uint256"
        }
      ],
      "stateMutability": "view",
      "type": "function"
    },
    {
      "inputs": [
        {
          "internalType": "uint256",
          "name": "amount",
          "type": "uint256"
        }
      ],
      "name": "burn",
      "outputs": [],
      "stateMutability": "nonpayable",
      "type": "function"
    },
    {
      "inputs": [],
      "name": "decimals",
      "outputs": [
        {
          "internalType": "uint8",
          "name": "",
          "type": "uint8"
        }
      ],
      "stateMutability": "view",
      "type": "function"
    },
    {
      "inputs": [
        {
          "internalType": "address",
          "name": "spender",
          "type": "address"
        },
        {
          "internalType": "uint256",
          "name": "subtractedValue",
          "type": "uint256"
        }
      ],
      "name": "decreaseAllowance",
      "outputs": [
        {
          "internalType": "bool",
          "name": "",
          "type": "bool"
        }
      ],
      "stateMutability": "nonpayable",
      "type": "function"
    },
    {
      "inputs": [
        {
          "internalType": "address",
          "name": "spender",
          "type": "address"
        },
        {
          "internalType": "uint256",
          "name": "addedValue",
          "type": "uint256"
        }
      ],
      "name": "increaseAllowance",
      "outputs": [
        {
          "internalType": "bool",
          "name": "",
          "type": "bool"
        }
      ],
      "stateMutability": "nonpayable",
      "type": "function"
    },
    {
      "inputs": [
        {
          "internalType": "address",
          "name": "to",
          "type": "address"
        },
        {
          "internalType": "uint256",
          "name": "amount",
          "type": "uint256"
        }
      ],
      "name": "mint",
      "outputs": [],
      "stateMutability": "nonpayable",
      "type": "function"
    },
    {
      "inputs": [],
      "name": "name",
      "outputs": [
        {
          "internalType": "string",
          "name": "",
          "type": "string"
        }
      ],
      "stateMutability": "view",
      "type": "function"
    },
    {
      "inputs": [],
      "name": "owner",
      "outputs": [
        {
          "internalType": "address",
          "name": "",
          "type": "address"
        }
      ],
      "stateMutability": "view",
      "type": "function"
    },
    {
      "inputs": [
        {
          "internalType": "uint256",
          "name": "amount",
          "type": "uint256"
        }
      ],
      "name": "redeem",
      "outputs": [],
      "stateMutability": "nonpayable",
      "type": "function"
    },
    {
      "inputs": [],
      "name": "renounceOwnership",
      "outputs": [],
      "stateMutability": "nonpayable",
      "type": "function"
    },
    {
      "inputs": [],
      "name": "symbol",
      "outputs": [
        {
          "internalType": "string",
          "name": "",
          "type": "string"
        }
      ],
      "stateMutability": "view",
      "type": "function"
    },
    {
      "inputs": [],
      "name": "totalSupply",
      "outputs": [
        {
          "internalType": "uint256",
          "name": "",
          "type": "uint256"
        }
      ],
      "stateMutability": "view",
      "type": "function"
    },
    {
      "inputs": [
        {
          "internalType": "address",
          "name": "recipient",
          "type": "address"
        },
        {
          "internalType": "uint256",
          "name": "amount",
          "type": "uint256"
        }
      ],
      "name": "transfer",
      "outputs": [
        {
          "internalType": "bool",
          "name": "",
          "type": "bool"
        }
      ],
      "stateMutability": "nonpayable",
      "type": "function"
    },
    {
      "inputs": [
        {
          "internalType": "address",
          "name": "from",
          "type": "address"
        },
        {
          "internalType": "address",
          "name": "to",
          "type": "address"
        },
        {
          "internalType": "uint256",
          "name": "amount",
          "type": "uint256"
        }
      ],
      "name": "transferFrom",
      "outputs": [
        {
          "internalType": "bool",
          "name": "",
          "type": "bool"
        }
      ],
      "stateMutability": "nonpayable",
      "type": "function"
    },
    {
      "inputs": [
        {
          "internalType": "address",
          "name": "newOwner",
          "type": "address"
        }
      ],
      "name": "transferOwnership",
      "outputs": [],
      "stateMutability": "nonpayable",
      "type": "function"
    },
    {
      "inputs": [
        {
          "internalType": "address payable",
          "name": "to",
          "type": "address"
        },
        {
          "internalType": "uint256",
          "name": "amount",
          "type": "uint256"
        }
      ],
      "name": "withdrawEther",
      "outputs": [],
      "stateMutability": "nonpayable",
      "type": "function"
    },
    {
      "stateMutability": "payable",
      "type": "receive"
    }
  ],
  "bytecode": "0x60806040523480156200001157600080fd5b50604051620029aa380380620029aa8339818101604052810190620000379190620004ad565b828281600390816200004a919062000788565b5080600490816200005c919062000788565b5050506200007f620000736200009a60201b60201c565b620000a260201b60201c565b6200009133826200016860201b60201c565b5050506200098a565b600033905090565b6000600560009054906101000a900473ffffffffffffffffffffffffffffffffffffffff16905081600560006101000a81548173ffffffffffffffffffffffffffffffffffffffff021916908373ffffffffffffffffffffffffffffffffffffffff1602179055508173ffffffffffffffffffffffffffffffffffffffff168173ffffffffffffffffffffffffffffffffffffffff167f8be0079c531659141344cd1fd0a4f28419497f9722a3daafe3b4186f6b6457e060405160405180910390a35050565b600073ffffffffffffffffffffffffffffffffffffffff168273ffffffffffffffffffffffffffffffffffffffff1603620001da576040517f08c379a0000000000000000000000000000000000000000000000000000000008152600401620001d190620008d0565b60405180910390fd5b620001ee60008383620002d560201b60201c565b806002600082825462000202919062000921565b92505081905550806000808473ffffffffffffffffffffffffffffffffffffffff1673ffffffffffffffffffffffffffffffffffffffff168152602001908152602001600020600082825401925050819055508173ffffffffffffffffffffffffffffffffffffffff16600073ffffffffffffffffffffffffffffffffffffffff167fddf252ad1be2c89b69c2b068fc378daa952ba7f163c4a11628f55a4df523b3ef83604051620002b591906200096d565b60405180910390a3620002d160008383620002da60201b60201c565b5050565b505050565b505050565b6000604051905090565b600080fd5b600080fd5b600080fd5b600080fd5b6000601f19601f8301169050919050565b7f4e487b7100000000000000000000000000000000000000000000000000000000600052604160045260246000fd5b6200034882620002fd565b810181811067ffffffffffffffff821117156200036a57620003696200030e565b5b80604052505050565b60006200037f620002df565b90506200038d82826200033d565b919050565b600067ffffffffffffffff821115620003b057620003af6200030e565b5b620003bb82620002fd565b9050602081019050919050565b60005b83811015620003e8578082015181840152602081019050620003cb565b60008484015250505050565b60006200040b620004058462000392565b62000373565b9050828152602081018484840111156200042a5762000429620002f8565b5b62000437848285620003c8565b509392505050565b600082601f830112620004575762000456620002f3565b5b815162000469848260208601620003f4565b91505092915050565b6000819050919050565b620004878162000472565b81146200049357600080fd5b50565b600081519050620004a7816200047c565b92915050565b600080600060608486031215620004c957620004c8620002e9565b5b600084015167ffffffffffffffff811115620004ea57620004e9620002ee565b5b620004f8868287016200043f565b935050602084015167ffffffffffffffff8111156200051c576200051b620002ee565b5b6200052a868287016200043f565b92505060406200053d8682870162000496565b9150509250925092565b600081519050919050565b7f4e487b7100000000000000000000000000000000000000000000000000000000600052602260045260246000fd5b600060028204905060018216806200059a57607f821691505b602082108103620005b057620005af62000552565b5b50919050565b60008190508160005260206000209050919050565b60006020601f8301049050919050565b600082821b905092915050565b6000600883026200061a7fffffffffffffffffffffffffffffffffffffffffffffffffffffffffffffffff82620005db565b620006268683620005db565b95508019841693508086168417925050509392505050565b6000819050919050565b600062000669620006636200065d8462000472565b6200063e565b62000472565b9050919050565b6000819050919050565b620006858362000648565b6200069d620006948262000670565b848454620005e8565b825550505050565b600090565b620006b4620006a5565b620006c18184846200067a565b505050565b5b81811015620006e957620006dd600082620006aa565b600181019050620006c7565b5050565b601f82111562000738576200070281620005b6565b6200070d84620005cb565b810160208510156200071d578190505b620007356200072c85620005cb565b830182620006c6565b50505b505050565b600082821c905092915050565b60006200075d600019846008026200073d565b1980831691505092915050565b60006200077883836200074a565b9150826002028217905092915050565b620007938262000547565b67ffffffffffffffff811115620007af57620007ae6200030e565b5b620007bb825462000581565b620007c8828285620006ed565b600060209050601f831160018114620008005760008415620007eb578287015190505b620007f785826200076a565b86555062000867565b601f1984166200081086620005b6565b60005b828110156200083a5784890151825560018201915060208501945060208101905062000813565b868310156200085a578489015162000856601f8916826200074a565b8355505b6001600288020188555050505b505050505050565b600082825260208201905092915050565b7f45524332303a206d696e7420746f20746865207a65726f206164647265737300600082015250565b6000620008b8601f836200086f565b9150620008c58262000880565b602082019050919050565b60006020820190508181036000830152620008eb81620008a9565b9050919050565b7f4e487b7100000000000000000000000000000000000000000000000000000000600052601160045260246000fd5b60006200092e8262000472565b91506200093b8362000472565b9250828201905080821115620009565762000955620008f2565b5b92915050565b620009678162000472565b82525050565b60006020820190506200098460008301846200095c565b92915050565b612010806200099a6000396000f3fe60806040526004361061010d5760003560e01c806370a0823111610095578063a457c2d711610064578063a457c2d7146103af578063a9059cbb146103ec578063db006a7514610429578063dd62ed3e14610452578063f2fde38b1461048f5761014d565b806370a0823114610305578063715018a6146103425780638da5cb5b1461035957806395d89b41146103845761014d565b8063313ce567116100dc578063313ce56714610222578063395093511461024d57806340c10f191461028a57806342966c68146102b3578063522f6815146102dc5761014d565b806306fdde0314610152578063095ea7b31461017d57806318160ddd146101ba57806323b872dd146101e55761014d565b3661014d576040517f08c379a000000000000000000000000000000000000000000000000000000000815260040161014490611413565b60405180910390fd5b600080fd5b34801561015e57600080fd5b506101676104b8565b60405161017491906114b2565b60405180910390f35b34801561018957600080fd5b506101a4600480360381019061019f919061156d565b61054a565b6040516101b191906115c8565b60405180910390f35b3480156101c657600080fd5b506101cf61056d565b6040516101dc91906115f2565b60405180910390f35b3480156101f157600080fd5b5061020c6004803603810190610207919061160d565b610577565b60405161021991906115c8565b60405180910390f35b34801561022e57600080fd5b506102376105a6565b604051610244919061167c565b60405180910390f35b34801561025957600080fd5b50610274600480360381019061026f919061156d565b6105af565b60405161028191906115c8565b60405180910390f35b34801561029657600080fd5b506102b160048036038101906102ac919061156d565b6105e6565b005b3480156102bf57600080fd5b506102da60048036038101906102d59190611697565b6105fc565b005b3480156102e857600080fd5b5061030360048036038101906102fe9190611702565b610610565b005b34801561031157600080fd5b5061032c60048036038101906103279190611742565b610715565b60405161033991906115f2565b60405180910390f35b34801561034e57600080fd5b5061035761075d565b005b34801561036557600080fd5b5061036e610771565b60405161037b919061177e565b60405180910390f35b34801561039057600080fd5b5061039961079b565b6040516103a691906114b2565b60405180910390f35b3480156103bb57600080fd5b506103d660048036038101906103d1919061156d565b61082d565b6040516103e391906115c8565b60405180910390f35b3480156103f857600080fd5b50610413600480360381019061040e919061156d565b6108a4565b60405161042091906115c8565b60405180910390f35b34801561043557600080fd5b50610450600480360381019061044b9190611697565b6108c2565b005b34801561045e57600080fd5b5061047960048036038101906104749190611799565b610968565b60405161048691906115f2565b60405180910390f35b34801561049b57600080fd5b506104b660048036038101906104b19190611742565b6109ef565b005b6060600380546104c790611808565b80601f01602080910402602001604051908101604052809291908181526020018280546104f390611808565b80156105405780601f1061051557610100808354040283529160200191610540565b820191906000526020600020905b81548152906001019060200180831161052357829003601f168201915b5050505050905090565b600080610555610a72565b9050610562818585610a7a565b600191505092915050565b6000600254905090565b600080610582610a72565b905061058f858285610c43565b61059a858585610ccf565b60019150509392505050565b60006012905090565b6000806105ba610a72565b90506105db8185856105cc8589610968565b6105d69190611868565b610a7a565b600191505092915050565b6105ee610f45565b6105f88282610fc3565b5050565b61060d610607610a72565b82611119565b50565b610618610f45565b600073ffffffffffffffffffffffffffffffffffffffff168273ffffffffffffffffffffffffffffffffffffffff1603610687576040517f08c379a000000000000000000000000000000000000000000000000000000000815260040161067e906118e8565b60405180910390fd5b804710156106ca576040517f08c379a00000000000000000000000000000000000000000000000000000000081526004016106c190611954565b60405180910390fd5b8173ffffffffffffffffffffffffffffffffffffffff166108fc829081150290604051600060405180830381858888f19350505050158015610710573d6000803e3d6000fd5b505050565b60008060008373ffffffffffffffffffffffffffffffffffffffff1673ffffffffffffffffffffffffffffffffffffffff168152602001908152602001600020549050919050565b610765610f45565b61076f60006112e6565b565b6000600560009054906101000a900473ffffffffffffffffffffffffffffffffffffffff16905090565b6060600480546107aa90611808565b80601f01602080910402602001604051908101604052809291908181526020018280546107d690611808565b80156108235780601f106107f857610100808354040283529160200191610823565b820191906000526020600020905b81548152906001019060200180831161080657829003601f168201915b5050505050905090565b600080610838610a72565b905060006108468286610968565b90508381101561088b576040517f08c379a0000000000000000000000000000000000000000000000000000000008152600401610882906119e6565b60405180910390fd5b6108988286868403610a7a565b60019250505092915050565b60006108b86108b1610a72565b8484610ccf565b6001905092915050565b806108cc33610715565b101561090d576040517f08c379a000000000000000000000000000000000000000000000000000000000815260040161090490611954565b60405180910390fd5b6109173382611119565b3373ffffffffffffffffffffffffffffffffffffffff167fcdd4c59de26b3f8623e6012ab9bc32a995eda3452d89c941fc8af6b74276ad388260405161095d91906115f2565b60405180910390a250565b6000600160008473ffffffffffffffffffffffffffffffffffffffff1673ffffffffffffffffffffffffffffffffffffffff16815260200190815260200160002060008373ffffffffffffffffffffffffffffffffffffffff1673ffffffffffffffffffffffffffffffffffffffff16815260200190815260200160002054905092915050565b6109f7610f45565b600073ffffffffffffffffffffffffffffffffffffffff168173ffffffffffffffffffffffffffffffffffffffff1603610a66576040517f08c379a0000000000000000000000000000000000000000000000000000000008152600401610a5d90611a78565b60405180910390fd5b610a6f816112e6565b50565b600033905090565b600073ffffffffffffffffffffffffffffffffffffffff168373ffffffffffffffffffffffffffffffffffffffff1603610ae9576040517f08c379a0000000000000000000000000000000000000000000000000000000008152600401610ae090611b0a565b60405180910390fd5b600073ffffffffffffffffffffffffffffffffffffffff168273ffffffffffffffffffffffffffffffffffffffff1603610b58576040517f08c379a0000000000000000000000000000000000000000000000000000000008152600401610b4f90611b9c565b60405180910390fd5b80600160008573ffffffffffffffffffffffffffffffffffffffff1673ffffffffffffffffffffffffffffffffffffffff16815260200190815260200160002060008473ffffffffffffffffffffffffffffffffffffffff1673ffffffffffffffffffffffffffffffffffffffff168152602001908152602001600020819055508173ffffffffffffffffffffffffffffffffffffffff168373ffffffffffffffffffffffffffffffffffffffff167f8c5be1e5ebec7d5bd14f71427d1e84f3dd0314c0f7b2291e5b200ac8c7c3b92583604051610c3691906115f2565b60405180910390a3505050565b6000610c4f8484610968565b90507fffffffffffffffffffffffffffffffffffffffffffffffffffffffffffffffff8114610cc95781811015610cbb576040517f08c379a0000000000000000000000000000000000000000000000000000000008152600401610cb290611c08565b60405180910390fd5b610cc88484848403610a7a565b5b50505050565b600073ffffffffffffffffffffffffffffffffffffffff168373ffffffffffffffffffffffffffffffffffffffff1603610d3e576040517f08c379a0000000000000000000000000000000000000000000000000000000008152600401610d3590611c9a565b60405180910390fd5b600073ffffffffffffffffffffffffffffffffffffffff168273ffffffffffffffffffffffffffffffffffffffff1603610dad576040517f08c379a0000000000000000000000000000000000000000000000000000000008152600401610da490611d2c565b60405180910390fd5b610db88383836113ac565b60008060008573ffffffffffffffffffffffffffffffffffffffff1673ffffffffffffffffffffffffffffffffffffffff16815260200190815260200160002054905081811015610e3e576040517f08c379a0000000000000000000000000000000000000000000000000000000008152600401610e3590611dbe565b60405180910390fd5b8181036000808673ffffffffffffffffffffffffffffffffffffffff1673ffffffffffffffffffffffffffffffffffffffff16815260200190815260200160002081905550816000808573ffffffffffffffffffffffffffffffffffffffff1673ffffffffffffffffffffffffffffffffffffffff168152602001908152602001600020600082825401925050819055508273ffffffffffffffffffffffffffffffffffffffff168473ffffffffffffffffffffffffffffffffffffffff167fddf252ad1be2c89b69c2b068fc378daa952ba7f163c4a11628f55a4df523b3ef84604051610f2c91906115f2565b60405180910390a3610f3f8484846113b1565b50505050565b610f4d610a72565b73ffffffffffffffffffffffffffffffffffffffff16610f6b610771565b73ffffffffffffffffffffffffffffffffffffffff1614610fc1576040517f08c379a0000000000000000000000000000000000000000000000000000000008152600401610fb890611e2a565b60405180910390fd5b565b600073ffffffffffffffffffffffffffffffffffffffff168273ffffffffffffffffffffffffffffffffffffffff1603611032576040517f08c379a000000000000000000000000000000000000000000000000000000000815260040161102990611e96565b60405180910390fd5b61103e600083836113ac565b80600260008282546110509190611868565b92505081905550806000808473ffffffffffffffffffffffffffffffffffffffff1673ffffffffffffffffffffffffffffffffffffffff168152602001908152602001600020600082825401925050819055508173ffffffffffffffffffffffffffffffffffffffff16600073ffffffffffffffffffffffffffffffffffffffff167fddf252ad1be2c89b69c2b068fc378daa952ba7f163c4a11628f55a4df523b3ef8360405161110191906115f2565b60405180910390a3611115600083836113b1565b5050565b600073ffffffffffffffffffffffffffffffffffffffff168273ffffffffffffffffffffffffffffffffffffffff1603611188576040517f08c379a000000000000000000000000000000000000000000000000000000000815260040161117f90611f28565b60405180910390fd5b611194826000836113ac565b60008060008473ffffffffffffffffffffffffffffffffffffffff1673ffffffffffffffffffffffffffffffffffffffff1681526020019081526020016000205490508181101561121a576040517f08c379a000000000000000000000000000000000000000000000000000000000815260040161121190611fba565b60405180910390fd5b8181036000808573ffffffffffffffffffffffffffffffffffffffff1673ffffffffffffffffffffffffffffffffffffffff1681526020019081526020016000208190555081600260008282540392505081905550600073ffffffffffffffffffffffffffffffffffffffff168373ffffffffffffffffffffffffffffffffffffffff167fddf252ad1be2c89b69c2b068fc378daa952ba7f163c4a11628f55a4df523b3ef846040516112cd91906115f2565b60405180910390a36112e1836000846113b1565b505050565b6000600560009054906101000a900473ffffffffffffffffffffffffffffffffffffffff16905081600560006101000a81548173ffffffffffffffffffffffffffffffffffffffff021916908373ffffffffffffffffffffffffffffffffffffffff1602179055508173ffffffffffffffffffffffffffffffffffffffff168173ffffffffffffffffffffffffffffffffffffffff167f8be0079c531659141344cd1fd0a4f28419497f9722a3daafe3b4186f6b6457e060405160405180910390a35050565b505050565b505050565b600082825260208201905092915050565b7f436f6e747261637420646f6573206e6f74206163636570742045746865720000600082015250565b60006113fd601e836113b6565b9150611408826113c7565b602082019050919050565b6000602082019050818103600083015261142c816113f0565b9050919050565b600081519050919050565b60005b8381101561145c578082015181840152602081019050611441565b60008484015250505050565b6000601f19601f8301169050919050565b600061148482611433565b61148e81856113b6565b935061149e81856020860161143e565b6114a781611468565b840191505092915050565b600060208201905081810360008301526114cc8184611479565b905092915050565b600080fd5b600073ffffffffffffffffffffffffffffffffffffffff82169050919050565b6000611504826114d9565b9050919050565b611514816114f9565b811461151f57600080fd5b50565b6000813590506115318161150b565b92915050565b6000819050919050565b61154a81611537565b811461155557600080fd5b50565b60008135905061156781611541565b92915050565b60008060408385031215611584576115836114d4565b5b600061159285828601611522565b92505060206115a385828601611558565b9150509250929050565b60008115159050919050565b6115c2816115ad565b82525050565b60006020820190506115dd60008301846115b9565b92915050565b6115ec81611537565b82525050565b600060208201905061160760008301846115e3565b92915050565b600080600060608486031215611626576116256114d4565b5b600061163486828701611522565b935050602061164586828701611522565b925050604061165686828701611558565b9150509250925092565b600060ff82169050919050565b61167681611660565b82525050565b6000602082019050611691600083018461166d565b92915050565b6000602082840312156116ad576116ac6114d4565b5b60006116bb84828501611558565b91505092915050565b60006116cf826114d9565b9050919050565b6116df816116c4565b81146116ea57600080fd5b50565b6000813590506116fc816116d6565b92915050565b60008060408385031215611719576117186114d4565b5b6000611727858286016116ed565b925050602061173885828601611558565b9150509250929050565b600060208284031215611758576117576114d4565b5b600061176684828501611522565b91505092915050565b611778816114f9565b82525050565b6000602082019050611793600083018461176f565b92915050565b600080604083850312156117b0576117af6114d4565b5b60006117be85828601611522565b92505060206117cf85828601611522565b9150509250929050565b7f4e487b7100000000000000000000000000000000000000000000000000000000600052602260045260246000fd5b6000600282049050600182168061182057607f821691505b602082108103611833576118326117d9565b5b50919050565b7f4e487b7100000000000000000000000000000000000000000000000000000000600052601160045260246000fd5b600061187382611537565b915061187e83611537565b925082820190508082111561189657611895611839565b5b92915050565b7f496e76616c696420616464726573730000000000000000000000000000000000600082015250565b60006118d2600f836113b6565b91506118dd8261189c565b602082019050919050565b60006020820190508181036000830152611901816118c5565b9050919050565b7f496e73756666696369656e742062616c616e6365000000000000000000000000600082015250565b600061193e6014836113b6565b915061194982611908565b602082019050919050565b6000602082019050818103600083015261196d81611931565b9050919050565b7f45524332303a2064656372656173656420616c6c6f77616e63652062656c6f7760008201527f207a65726f000000000000000000000000000000000000000000000000000000602082015250565b60006119d06025836113b6565b91506119db82611974565b604082019050919050565b600060208201905081810360008301526119ff816119c3565b9050919050565b7f4f776e61626c653a206e6577206f776e657220697320746865207a65726f206160008201527f6464726573730000000000000000000000000000000000000000000000000000602082015250565b6000611a626026836113b6565b9150611a6d82611a06565b604082019050919050565b60006020820190508181036000830152611a9181611a55565b9050919050565b7f45524332303a20617070726f76652066726f6d20746865207a65726f2061646460008201527f7265737300000000000000000000000000000000000000000000000000000000602082015250565b6000611af46024836113b6565b9150611aff82611a98565b604082019050919050565b60006020820190508181036000830152611b2381611ae7565b9050919050565b7f45524332303a20617070726f766520746f20746865207a65726f20616464726560008201527f7373000000000000000000000000000000000000000000000000000000000000602082015250565b6000611b866022836113b6565b9150611b9182611b2a565b604082019050919050565b60006020820190508181036000830152611bb581611b79565b9050919050565b7f45524332303a20696e73756666696369656e7420616c6c6f77616e6365000000600082015250565b6000611bf2601d836113b6565b9150611bfd82611bbc565b602082019050919050565b60006020820190508181036000830152611c2181611be5565b9050919050565b7f45524332303a207472616e736665722066726f6d20746865207a65726f20616460008201527f6472657373000000000000000000000000000000000000000000000000000000602082015250565b6000611c846025836113b6565b9150611c8f82611c28565b604082019050919050565b60006020820190508181036000830152611cb381611c77565b9050919050565b7f45524332303a207472616e7366657220746f20746865207a65726f206164647260008201527f6573730000000000000000000000000000000000000000000000000000000000602082015250565b6000611d166023836113b6565b9150611d2182611cba565b604082019050919050565b60006020820190508181036000830152611d4581611d09565b9050919050565b7f45524332303a207472616e7366657220616d6f756e742065786365656473206260008201527f616c616e63650000000000000000000000000000000000000000000000000000602082015250565b6000611da86026836113b6565b9150611db382611d4c565b604082019050919050565b60006020820190508181036000830152611dd781611d9b565b9050919050565b7f4f776e61626c653a2063616c6c6572206973206e6f7420746865206f776e6572600082015250565b6000611e146020836113b6565b9150611e1f82611dde565b602082019050919050565b60006020820190508181036000830152611e4381611e07565b9050919050565b7f45524332303a206d696e7420746f20746865207a65726f206164647265737300600082015250565b6000611e80601f836113b6565b9150611e8b82611e4a565b602082019050919050565b60006020820190508181036000830152611eaf81611e73565b9050919050565b7f45524332303a206275726e2066726f6d20746865207a65726f2061646472657360008201527f7300000000000000000000000000000000000000000000000000000000000000602082015250565b6000611f126021836113b6565b9150611f1d82611eb6565b604082019050919050565b60006020820190508181036000830152611f4181611f05565b9050919050565b7f45524332303a206275726e20616d6f756e7420657863656564732062616c616e60008201527f6365000000000000000000000000000000000000000000000000000000000000602082015250565b6000611fa46022836113b6565b9150611faf82611f48565b604082019050919050565b60006020820190508181036000830152611fd381611f97565b905091905056fea26469706673582212203920e0024f13598acdd8577e8f445ba2e03501cae36a04e5fc6d663a322a077164736f6c63430008120033",
  "linkReferences": {},
  "deployedLinkReferences": {}
}